{
  "contractName": "SimpleRedistributionScheme",
  "abi": [
    {
      "inputs": [],
      "stateMutability": "nonpayable",
      "type": "constructor"
    },
    {
      "inputs": [
        {
          "internalType": "address",
          "name": "",
          "type": "address"
        }
      ],
      "name": "contributors",
      "outputs": [
        {
          "internalType": "bool",
          "name": "",
          "type": "bool"
        }
      ],
      "stateMutability": "view",
      "type": "function"
    },
    {
      "inputs": [],
      "name": "minimumContribution",
      "outputs": [
        {
          "internalType": "uint256",
          "name": "",
          "type": "uint256"
        }
      ],
      "stateMutability": "view",
      "type": "function"
    },
    {
      "inputs": [],
      "name": "totalWeiRaised",
      "outputs": [
        {
          "internalType": "uint256",
          "name": "",
          "type": "uint256"
        }
      ],
      "stateMutability": "view",
      "type": "function"
    },
    {
      "inputs": [],
      "name": "contribute",
      "outputs": [],
      "stateMutability": "payable",
      "type": "function"
    },
    {
      "inputs": [],
      "name": "getTotalFund",
      "outputs": [
        {
          "internalType": "uint256",
          "name": "",
          "type": "uint256"
        }
      ],
      "stateMutability": "view",
      "type": "function"
    }
  ],
  "bytecode": "0x6080604052606460015534801561001557600080fd5b50610225806100256000396000f3fe60806040526004361061004a5760003560e01c80631f6d49421461004f57806353f4db01146100b6578063937e09b1146100e15780639fd813e31461010c578063d7bb99ba14610137575b600080fd5b34801561005b57600080fd5b5061009e6004803603602081101561007257600080fd5b81019080803573ffffffffffffffffffffffffffffffffffffffff169060200190929190505050610141565b60405180821515815260200191505060405180910390f35b3480156100c257600080fd5b506100cb610161565b6040518082815260200191505060405180910390f35b3480156100ed57600080fd5b506100f6610167565b6040518082815260200191505060405180910390f35b34801561011857600080fd5b5061012161016d565b6040518082815260200191505060405180910390f35b61013f610177565b005b60026020528060005260406000206000915054906101000a900460ff1681565b60015481565b60005481565b6000600154905090565b600054341161018557600080fd5b6001600260003373ffffffffffffffffffffffffffffffffffffffff1673ffffffffffffffffffffffffffffffffffffffff16815260200190815260200160002060006101000a81548160ff0219169083151502179055503460016000828254019250508190555056fea2646970667358221220dd674bf605073d94d204c011b36bebfa42294cabb172a1fafe411cfcd69cd3e264736f6c63430007040033",
  "immutableReferences": {},
  "source": "// SPDX-License-Identifier: MIT\npragma solidity ^0.7.4;\n\n\ncontract SimpleRedistributionScheme {\n\n  uint public minimumContribution;\n  uint public totalWeiRaised = 100;\n\n  mapping(address => bool) public contributors;\n\n\n  constructor(){\n\n  }\n\n  function contribute() payable public {\n    require(msg.value > minimumContribution);\n\n    contributors[msg.sender] = true;\n\n    totalWeiRaised += msg.value;\n  }\n\n  function releaseFunds() private {\n\n  }\n\n  function getTotalFund() public view returns (uint) {\n    return totalWeiRaised;\n  }\n}\n",
  "sourcePath": "/Users/timofejjermolaev/Documents/srs/contracts/SimpleRedistributionScheme.sol",
  "compiler": {
    "name": "solc",
    "version": "0.7.4+commit.3f05b770.Emscripten.clang"
  },
  "schemaVersion": "3.3.3",
  "updatedAt": "2021-01-31T22:49:42.028Z",
  "devdoc": {
    "kind": "dev",
    "methods": {},
    "version": 1
  },
  "userdoc": {
    "kind": "user",
    "methods": {},
    "version": 1
  }
}